{
  "_format": "hh-sol-artifact-1",
  "contractName": "MyToken",
  "sourceName": "contracts/NFT.sol",
  "abi": [
    {
      "inputs": [],
      "stateMutability": "nonpayable",
      "type": "constructor"
    },
    {
      "anonymous": false,
      "inputs": [
        {
          "indexed": true,
          "internalType": "address",
          "name": "owner",
          "type": "address"
        },
        {
          "indexed": true,
          "internalType": "address",
          "name": "approved",
          "type": "address"
        },
        {
          "indexed": true,
          "internalType": "uint256",
          "name": "tokenId",
          "type": "uint256"
        }
      ],
      "name": "Approval",
      "type": "event"
    },
    {
      "anonymous": false,
      "inputs": [
        {
          "indexed": true,
          "internalType": "address",
          "name": "owner",
          "type": "address"
        },
        {
          "indexed": true,
          "internalType": "address",
          "name": "operator",
          "type": "address"
        },
        {
          "indexed": false,
          "internalType": "bool",
          "name": "approved",
          "type": "bool"
        }
      ],
      "name": "ApprovalForAll",
      "type": "event"
    },
    {
      "anonymous": false,
      "inputs": [
        {
          "indexed": false,
          "internalType": "address",
          "name": "sender",
          "type": "address"
        },
        {
          "indexed": false,
          "internalType": "uint256",
          "name": "tokenId",
          "type": "uint256"
        }
      ],
      "name": "NFTMinted",
      "type": "event"
    },
    {
      "anonymous": false,
      "inputs": [
        {
          "indexed": true,
          "internalType": "address",
          "name": "from",
          "type": "address"
        },
        {
          "indexed": true,
          "internalType": "address",
          "name": "to",
          "type": "address"
        },
        {
          "indexed": true,
          "internalType": "uint256",
          "name": "tokenId",
          "type": "uint256"
        }
      ],
      "name": "Transfer",
      "type": "event"
    },
    {
      "inputs": [
        {
          "internalType": "address",
          "name": "to",
          "type": "address"
        },
        {
          "internalType": "uint256",
          "name": "tokenId",
          "type": "uint256"
        }
      ],
      "name": "approve",
      "outputs": [],
      "stateMutability": "nonpayable",
      "type": "function"
    },
    {
      "inputs": [
        {
          "internalType": "address",
          "name": "owner",
          "type": "address"
        }
      ],
      "name": "balanceOf",
      "outputs": [
        {
          "internalType": "uint256",
          "name": "",
          "type": "uint256"
        }
      ],
      "stateMutability": "view",
      "type": "function"
    },
    {
      "inputs": [
        {
          "internalType": "uint256",
          "name": "tokenId",
          "type": "uint256"
        }
      ],
      "name": "getApproved",
      "outputs": [
        {
          "internalType": "address",
          "name": "",
          "type": "address"
        }
      ],
      "stateMutability": "view",
      "type": "function"
    },
    {
      "inputs": [
        {
          "internalType": "address",
          "name": "owner",
          "type": "address"
        },
        {
          "internalType": "address",
          "name": "operator",
          "type": "address"
        }
      ],
      "name": "isApprovedForAll",
      "outputs": [
        {
          "internalType": "bool",
          "name": "",
          "type": "bool"
        }
      ],
      "stateMutability": "view",
      "type": "function"
    },
    {
      "inputs": [
        {
          "internalType": "address",
          "name": "to",
          "type": "address"
        },
        {
          "internalType": "string",
          "name": "uri",
          "type": "string"
        }
      ],
      "name": "mintNFT",
      "outputs": [],
      "stateMutability": "nonpayable",
      "type": "function"
    },
    {
      "inputs": [],
      "name": "name",
      "outputs": [
        {
          "internalType": "string",
          "name": "",
          "type": "string"
        }
      ],
      "stateMutability": "view",
      "type": "function"
    },
    {
      "inputs": [
        {
          "internalType": "uint256",
          "name": "tokenId",
          "type": "uint256"
        }
      ],
      "name": "ownerOf",
      "outputs": [
        {
          "internalType": "address",
          "name": "",
          "type": "address"
        }
      ],
      "stateMutability": "view",
      "type": "function"
    },
    {
      "inputs": [
        {
          "internalType": "address",
          "name": "from",
          "type": "address"
        },
        {
          "internalType": "address",
          "name": "to",
          "type": "address"
        },
        {
          "internalType": "uint256",
          "name": "tokenId",
          "type": "uint256"
        }
      ],
      "name": "safeTransferFrom",
      "outputs": [],
      "stateMutability": "nonpayable",
      "type": "function"
    },
    {
      "inputs": [
        {
          "internalType": "address",
          "name": "from",
          "type": "address"
        },
        {
          "internalType": "address",
          "name": "to",
          "type": "address"
        },
        {
          "internalType": "uint256",
          "name": "tokenId",
          "type": "uint256"
        },
        {
          "internalType": "bytes",
          "name": "_data",
          "type": "bytes"
        }
      ],
      "name": "safeTransferFrom",
      "outputs": [],
      "stateMutability": "nonpayable",
      "type": "function"
    },
    {
      "inputs": [
        {
          "internalType": "address",
          "name": "operator",
          "type": "address"
        },
        {
          "internalType": "bool",
          "name": "approved",
          "type": "bool"
        }
      ],
      "name": "setApprovalForAll",
      "outputs": [],
      "stateMutability": "nonpayable",
      "type": "function"
    },
    {
      "inputs": [
        {
          "internalType": "bytes4",
          "name": "interfaceId",
          "type": "bytes4"
        }
      ],
      "name": "supportsInterface",
      "outputs": [
        {
          "internalType": "bool",
          "name": "",
          "type": "bool"
        }
      ],
      "stateMutability": "view",
      "type": "function"
    },
    {
      "inputs": [],
      "name": "symbol",
      "outputs": [
        {
          "internalType": "string",
          "name": "",
          "type": "string"
        }
      ],
      "stateMutability": "view",
      "type": "function"
    },
    {
      "inputs": [
        {
          "internalType": "uint256",
          "name": "tokenId",
          "type": "uint256"
        }
      ],
      "name": "tokenURI",
      "outputs": [
        {
          "internalType": "string",
          "name": "",
          "type": "string"
        }
      ],
      "stateMutability": "view",
      "type": "function"
    },
    {
      "inputs": [
        {
          "internalType": "address",
          "name": "from",
          "type": "address"
        },
        {
          "internalType": "address",
          "name": "to",
          "type": "address"
        },
        {
          "internalType": "uint256",
          "name": "tokenId",
          "type": "uint256"
        }
      ],
      "name": "transferFrom",
      "outputs": [],
      "stateMutability": "nonpayable",
      "type": "function"
    }
  ],
  "bytecode": "0x608060405260006007553480156200001657600080fd5b506040518060400160405280600781526020017f4d79546f6b656e000000000000000000000000000000000000000000000000008152506040518060400160405280600381526020017f4d544b000000000000000000000000000000000000000000000000000000000081525081600090805190602001906200009b929190620000bd565b508060019080519060200190620000b4929190620000bd565b505050620001d2565b828054620000cb906200016d565b90600052602060002090601f016020900481019282620000ef57600085556200013b565b82601f106200010a57805160ff19168380011785556200013b565b828001600101855582156200013b579182015b828111156200013a5782518255916020019190600101906200011d565b5b5090506200014a91906200014e565b5090565b5b80821115620001695760008160009055506001016200014f565b5090565b600060028204905060018216806200018657607f821691505b602082108114156200019d576200019c620001a3565b5b50919050565b7f4e487b7100000000000000000000000000000000000000000000000000000000600052602260045260246000fd5b612c4d80620001e26000396000f3fe608060405234801561001057600080fd5b50600436106100ea5760003560e01c806370a082311161008c578063b88d4fde11610066578063b88d4fde1461025b578063c87b56dd14610277578063e985e9c5146102a7578063eacabe14146102d7576100ea565b806370a08231146101f157806395d89b4114610221578063a22cb4651461023f576100ea565b8063095ea7b3116100c8578063095ea7b31461016d57806323b872dd1461018957806342842e0e146101a55780636352211e146101c1576100ea565b806301ffc9a7146100ef57806306fdde031461011f578063081812fc1461013d575b600080fd5b61010960048036038101906101049190611cd1565b6102f3565b6040516101169190612100565b60405180910390f35b6101276103d5565b604051610134919061211b565b60405180910390f35b61015760048036038101906101529190611d23565b610467565b6040516101649190612070565b60405180910390f35b61018760048036038101906101829190611c95565b6104ec565b005b6101a3600480360381019061019e9190611b3b565b610604565b005b6101bf60048036038101906101ba9190611b3b565b610664565b005b6101db60048036038101906101d69190611d23565b610684565b6040516101e89190612070565b60405180910390f35b61020b60048036038101906102069190611ad6565b610736565b604051610218919061233d565b60405180910390f35b6102296107ee565b604051610236919061211b565b60405180910390f35b61025960048036038101906102549190611c05565b610880565b005b61027560048036038101906102709190611b8a565b610896565b005b610291600480360381019061028c9190611d23565b6108f8565b60405161029e919061211b565b60405180910390f35b6102c160048036038101906102bc9190611aff565b61090a565b6040516102ce9190612100565b60405180910390f35b6102f160048036038101906102ec9190611c41565b61099e565b005b60007f80ac58cd000000000000000000000000000000000000000000000000000000007bffffffffffffffffffffffffffffffffffffffffffffffffffffffff1916827bffffffffffffffffffffffffffffffffffffffffffffffffffffffff191614806103be57507f5b5e139f000000000000000000000000000000000000000000000000000000007bffffffffffffffffffffffffffffffffffffffffffffffffffffffff1916827bffffffffffffffffffffffffffffffffffffffffffffffffffffffff1916145b806103ce57506103cd82610a0d565b5b9050919050565b6060600080546103e490612593565b80601f016020809104026020016040519081016040528092919081815260200182805461041090612593565b801561045d5780601f106104325761010080835404028352916020019161045d565b820191906000526020600020905b81548152906001019060200180831161044057829003601f168201915b5050505050905090565b600061047282610a77565b6104b1576040517f08c379a00000000000000000000000000000000000000000000000000000000081526004016104a8906122bd565b60405180910390fd5b6004600083815260200190815260200160002060009054906101000a900473ffffffffffffffffffffffffffffffffffffffff169050919050565b60006104f782610684565b90508073ffffffffffffffffffffffffffffffffffffffff168373ffffffffffffffffffffffffffffffffffffffff161415610568576040517f08c379a000000000000000000000000000000000000000000000000000000000815260040161055f906122fd565b60405180910390fd5b8073ffffffffffffffffffffffffffffffffffffffff16610587610ae3565b73ffffffffffffffffffffffffffffffffffffffff1614806105b657506105b5816105b0610ae3565b61090a565b5b6105f5576040517f08c379a00000000000000000000000000000000000000000000000000000000081526004016105ec906121fd565b60405180910390fd5b6105ff8383610aeb565b505050565b61061561060f610ae3565b82610ba4565b610654576040517f08c379a000000000000000000000000000000000000000000000000000000000815260040161064b9061231d565b60405180910390fd5b61065f838383610c82565b505050565b61067f83838360405180602001604052806000815250610896565b505050565b6000806002600084815260200190815260200160002060009054906101000a900473ffffffffffffffffffffffffffffffffffffffff169050600073ffffffffffffffffffffffffffffffffffffffff168173ffffffffffffffffffffffffffffffffffffffff16141561072d576040517f08c379a00000000000000000000000000000000000000000000000000000000081526004016107249061223d565b60405180910390fd5b80915050919050565b60008073ffffffffffffffffffffffffffffffffffffffff168273ffffffffffffffffffffffffffffffffffffffff1614156107a7576040517f08c379a000000000000000000000000000000000000000000000000000000000815260040161079e9061221d565b60405180910390fd5b600360008373ffffffffffffffffffffffffffffffffffffffff1673ffffffffffffffffffffffffffffffffffffffff168152602001908152602001600020549050919050565b6060600180546107fd90612593565b80601f016020809104026020016040519081016040528092919081815260200182805461082990612593565b80156108765780601f1061084b57610100808354040283529160200191610876565b820191906000526020600020905b81548152906001019060200180831161085957829003601f168201915b5050505050905090565b61089261088b610ae3565b8383610ee9565b5050565b6108a76108a1610ae3565b83610ba4565b6108e6576040517f08c379a00000000000000000000000000000000000000000000000000000000081526004016108dd9061231d565b60405180910390fd5b6108f284848484611056565b50505050565b6060610903826110b2565b9050919050565b6000600560008473ffffffffffffffffffffffffffffffffffffffff1673ffffffffffffffffffffffffffffffffffffffff16815260200190815260200160002060008373ffffffffffffffffffffffffffffffffffffffff1673ffffffffffffffffffffffffffffffffffffffff16815260200190815260200160002060009054906101000a900460ff16905092915050565b6109aa82600754611204565b6109b660075482611222565b600760008154809291906109c9906125f6565b91905055507f4cc0a9c4a99ddc700de1af2c9f916a7cbfdb71f14801ccff94061ad1ef8a804033600754604051610a019291906120d7565b60405180910390a15050565b60007f01ffc9a7000000000000000000000000000000000000000000000000000000007bffffffffffffffffffffffffffffffffffffffffffffffffffffffff1916827bffffffffffffffffffffffffffffffffffffffffffffffffffffffff1916149050919050565b60008073ffffffffffffffffffffffffffffffffffffffff166002600084815260200190815260200160002060009054906101000a900473ffffffffffffffffffffffffffffffffffffffff1673ffffffffffffffffffffffffffffffffffffffff1614159050919050565b600033905090565b816004600083815260200190815260200160002060006101000a81548173ffffffffffffffffffffffffffffffffffffffff021916908373ffffffffffffffffffffffffffffffffffffffff160217905550808273ffffffffffffffffffffffffffffffffffffffff16610b5e83610684565b73ffffffffffffffffffffffffffffffffffffffff167f8c5be1e5ebec7d5bd14f71427d1e84f3dd0314c0f7b2291e5b200ac8c7c3b92560405160405180910390a45050565b6000610baf82610a77565b610bee576040517f08c379a0000000000000000000000000000000000000000000000000000000008152600401610be5906121dd565b60405180910390fd5b6000610bf983610684565b90508073ffffffffffffffffffffffffffffffffffffffff168473ffffffffffffffffffffffffffffffffffffffff161480610c3b5750610c3a818561090a565b5b80610c7957508373ffffffffffffffffffffffffffffffffffffffff16610c6184610467565b73ffffffffffffffffffffffffffffffffffffffff16145b91505092915050565b8273ffffffffffffffffffffffffffffffffffffffff16610ca282610684565b73ffffffffffffffffffffffffffffffffffffffff1614610cf8576040517f08c379a0000000000000000000000000000000000000000000000000000000008152600401610cef9061215d565b60405180910390fd5b600073ffffffffffffffffffffffffffffffffffffffff168273ffffffffffffffffffffffffffffffffffffffff161415610d68576040517f08c379a0000000000000000000000000000000000000000000000000000000008152600401610d5f9061219d565b60405180910390fd5b610d73838383611296565b610d7e600082610aeb565b6001600360008573ffffffffffffffffffffffffffffffffffffffff1673ffffffffffffffffffffffffffffffffffffffff1681526020019081526020016000206000828254610dce91906124a9565b925050819055506001600360008473ffffffffffffffffffffffffffffffffffffffff1673ffffffffffffffffffffffffffffffffffffffff1681526020019081526020016000206000828254610e259190612422565b92505081905550816002600083815260200190815260200160002060006101000a81548173ffffffffffffffffffffffffffffffffffffffff021916908373ffffffffffffffffffffffffffffffffffffffff160217905550808273ffffffffffffffffffffffffffffffffffffffff168473ffffffffffffffffffffffffffffffffffffffff167fddf252ad1be2c89b69c2b068fc378daa952ba7f163c4a11628f55a4df523b3ef60405160405180910390a4610ee483838361129b565b505050565b8173ffffffffffffffffffffffffffffffffffffffff168373ffffffffffffffffffffffffffffffffffffffff161415610f58576040517f08c379a0000000000000000000000000000000000000000000000000000000008152600401610f4f906121bd565b60405180910390fd5b80600560008573ffffffffffffffffffffffffffffffffffffffff1673ffffffffffffffffffffffffffffffffffffffff16815260200190815260200160002060008473ffffffffffffffffffffffffffffffffffffffff1673ffffffffffffffffffffffffffffffffffffffff16815260200190815260200160002060006101000a81548160ff0219169083151502179055508173ffffffffffffffffffffffffffffffffffffffff168373ffffffffffffffffffffffffffffffffffffffff167f17307eab39ab6107e8899845ad3d59bd9653f200f220920489ca2b5937696c31836040516110499190612100565b60405180910390a3505050565b611061848484610c82565b61106d848484846112a0565b6110ac576040517f08c379a00000000000000000000000000000000000000000000000000000000081526004016110a39061213d565b60405180910390fd5b50505050565b60606110bd82610a77565b6110fc576040517f08c379a00000000000000000000000000000000000000000000000000000000081526004016110f39061229d565b60405180910390fd5b600060066000848152602001908152602001600020805461111c90612593565b80601f016020809104026020016040519081016040528092919081815260200182805461114890612593565b80156111955780601f1061116a57610100808354040283529160200191611195565b820191906000526020600020905b81548152906001019060200180831161117857829003601f168201915b5050505050905060006111a6611437565b90506000815114156111bc5781925050506111ff565b6000825111156111f15780826040516020016111d992919061204c565b604051602081830303815290604052925050506111ff565b6111fa8461144e565b925050505b919050565b61121e8282604051806020016040528060008152506114f5565b5050565b61122b82610a77565b61126a576040517f08c379a00000000000000000000000000000000000000000000000000000000081526004016112619061225d565b60405180910390fd5b806006600084815260200190815260200160002090805190602001906112919291906118fa565b505050565b505050565b505050565b60006112c18473ffffffffffffffffffffffffffffffffffffffff16611550565b1561142a578373ffffffffffffffffffffffffffffffffffffffff1663150b7a026112ea610ae3565b8786866040518563ffffffff1660e01b815260040161130c949392919061208b565b602060405180830381600087803b15801561132657600080fd5b505af192505050801561135757506040513d601f19601f820116820180604052508101906113549190611cfa565b60015b6113da573d8060008114611387576040519150601f19603f3d011682016040523d82523d6000602084013e61138c565b606091505b506000815114156113d2576040517f08c379a00000000000000000000000000000000000000000000000000000000081526004016113c99061213d565b60405180910390fd5b805181602001fd5b63150b7a0260e01b7bffffffffffffffffffffffffffffffffffffffffffffffffffffffff1916817bffffffffffffffffffffffffffffffffffffffffffffffffffffffff19161491505061142f565b600190505b949350505050565b606060405180602001604052806000815250905090565b606061145982610a77565b611498576040517f08c379a000000000000000000000000000000000000000000000000000000000815260040161148f906122dd565b60405180910390fd5b60006114a2611437565b905060008151116114c257604051806020016040528060008152506114ed565b806114cc84611573565b6040516020016114dd92919061204c565b6040516020818303038152906040525b915050919050565b6114ff8383611720565b61150c60008484846112a0565b61154b576040517f08c379a00000000000000000000000000000000000000000000000000000000081526004016115429061213d565b60405180910390fd5b505050565b6000808273ffffffffffffffffffffffffffffffffffffffff163b119050919050565b606060008214156115bb576040518060400160405280600181526020017f3000000000000000000000000000000000000000000000000000000000000000815250905061171b565b600082905060005b600082146115ed5780806115d6906125f6565b915050600a826115e69190612478565b91506115c3565b60008167ffffffffffffffff81111561162f577f4e487b7100000000000000000000000000000000000000000000000000000000600052604160045260246000fd5b6040519080825280601f01601f1916602001820160405280156116615781602001600182028036833780820191505090505b5090505b600085146117145760018261167a91906124a9565b9150600a85611689919061263f565b60306116959190612422565b60f81b8183815181106116d1577f4e487b7100000000000000000000000000000000000000000000000000000000600052603260045260246000fd5b60200101907effffffffffffffffffffffffffffffffffffffffffffffffffffffffffffff1916908160001a905350600a8561170d9190612478565b9450611665565b8093505050505b919050565b600073ffffffffffffffffffffffffffffffffffffffff168273ffffffffffffffffffffffffffffffffffffffff161415611790576040517f08c379a00000000000000000000000000000000000000000000000000000000081526004016117879061227d565b60405180910390fd5b61179981610a77565b156117d9576040517f08c379a00000000000000000000000000000000000000000000000000000000081526004016117d09061217d565b60405180910390fd5b6117e560008383611296565b6001600360008473ffffffffffffffffffffffffffffffffffffffff1673ffffffffffffffffffffffffffffffffffffffff16815260200190815260200160002060008282546118359190612422565b92505081905550816002600083815260200190815260200160002060006101000a81548173ffffffffffffffffffffffffffffffffffffffff021916908373ffffffffffffffffffffffffffffffffffffffff160217905550808273ffffffffffffffffffffffffffffffffffffffff16600073ffffffffffffffffffffffffffffffffffffffff167fddf252ad1be2c89b69c2b068fc378daa952ba7f163c4a11628f55a4df523b3ef60405160405180910390a46118f66000838361129b565b5050565b82805461190690612593565b90600052602060002090601f016020900481019282611928576000855561196f565b82601f1061194157805160ff191683800117855561196f565b8280016001018555821561196f579182015b8281111561196e578251825591602001919060010190611953565b5b50905061197c9190611980565b5090565b5b80821115611999576000816000905550600101611981565b5090565b60006119b06119ab8461237d565b612358565b9050828152602081018484840111156119c857600080fd5b6119d3848285612551565b509392505050565b60006119ee6119e9846123ae565b612358565b905082815260208101848484011115611a0657600080fd5b611a11848285612551565b509392505050565b600081359050611a2881612bbb565b92915050565b600081359050611a3d81612bd2565b92915050565b600081359050611a5281612be9565b92915050565b600081519050611a6781612be9565b92915050565b600082601f830112611a7e57600080fd5b8135611a8e84826020860161199d565b91505092915050565b600082601f830112611aa857600080fd5b8135611ab88482602086016119db565b91505092915050565b600081359050611ad081612c00565b92915050565b600060208284031215611ae857600080fd5b6000611af684828501611a19565b91505092915050565b60008060408385031215611b1257600080fd5b6000611b2085828601611a19565b9250506020611b3185828601611a19565b9150509250929050565b600080600060608486031215611b5057600080fd5b6000611b5e86828701611a19565b9350506020611b6f86828701611a19565b9250506040611b8086828701611ac1565b9150509250925092565b60008060008060808587031215611ba057600080fd5b6000611bae87828801611a19565b9450506020611bbf87828801611a19565b9350506040611bd087828801611ac1565b925050606085013567ffffffffffffffff811115611bed57600080fd5b611bf987828801611a6d565b91505092959194509250565b60008060408385031215611c1857600080fd5b6000611c2685828601611a19565b9250506020611c3785828601611a2e565b9150509250929050565b60008060408385031215611c5457600080fd5b6000611c6285828601611a19565b925050602083013567ffffffffffffffff811115611c7f57600080fd5b611c8b85828601611a97565b9150509250929050565b60008060408385031215611ca857600080fd5b6000611cb685828601611a19565b9250506020611cc785828601611ac1565b9150509250929050565b600060208284031215611ce357600080fd5b6000611cf184828501611a43565b91505092915050565b600060208284031215611d0c57600080fd5b6000611d1a84828501611a58565b91505092915050565b600060208284031215611d3557600080fd5b6000611d4384828501611ac1565b91505092915050565b611d55816124dd565b82525050565b611d64816124ef565b82525050565b6000611d75826123df565b611d7f81856123f5565b9350611d8f818560208601612560565b611d988161272c565b840191505092915050565b6000611dae826123ea565b611db88185612406565b9350611dc8818560208601612560565b611dd18161272c565b840191505092915050565b6000611de7826123ea565b611df18185612417565b9350611e01818560208601612560565b80840191505092915050565b6000611e1a603283612406565b9150611e258261273d565b604082019050919050565b6000611e3d602583612406565b9150611e488261278c565b604082019050919050565b6000611e60601c83612406565b9150611e6b826127db565b602082019050919050565b6000611e83602483612406565b9150611e8e82612804565b604082019050919050565b6000611ea6601983612406565b9150611eb182612853565b602082019050919050565b6000611ec9602c83612406565b9150611ed48261287c565b604082019050919050565b6000611eec603883612406565b9150611ef7826128cb565b604082019050919050565b6000611f0f602a83612406565b9150611f1a8261291a565b604082019050919050565b6000611f32602983612406565b9150611f3d82612969565b604082019050919050565b6000611f55602e83612406565b9150611f60826129b8565b604082019050919050565b6000611f78602083612406565b9150611f8382612a07565b602082019050919050565b6000611f9b603183612406565b9150611fa682612a30565b604082019050919050565b6000611fbe602c83612406565b9150611fc982612a7f565b604082019050919050565b6000611fe1602f83612406565b9150611fec82612ace565b604082019050919050565b6000612004602183612406565b915061200f82612b1d565b604082019050919050565b6000612027603183612406565b915061203282612b6c565b604082019050919050565b61204681612547565b82525050565b60006120588285611ddc565b91506120648284611ddc565b91508190509392505050565b60006020820190506120856000830184611d4c565b92915050565b60006080820190506120a06000830187611d4c565b6120ad6020830186611d4c565b6120ba604083018561203d565b81810360608301526120cc8184611d6a565b905095945050505050565b60006040820190506120ec6000830185611d4c565b6120f9602083018461203d565b9392505050565b60006020820190506121156000830184611d5b565b92915050565b600060208201905081810360008301526121358184611da3565b905092915050565b6000602082019050818103600083015261215681611e0d565b9050919050565b6000602082019050818103600083015261217681611e30565b9050919050565b6000602082019050818103600083015261219681611e53565b9050919050565b600060208201905081810360008301526121b681611e76565b9050919050565b600060208201905081810360008301526121d681611e99565b9050919050565b600060208201905081810360008301526121f681611ebc565b9050919050565b6000602082019050818103600083015261221681611edf565b9050919050565b6000602082019050818103600083015261223681611f02565b9050919050565b6000602082019050818103600083015261225681611f25565b9050919050565b6000602082019050818103600083015261227681611f48565b9050919050565b6000602082019050818103600083015261229681611f6b565b9050919050565b600060208201905081810360008301526122b681611f8e565b9050919050565b600060208201905081810360008301526122d681611fb1565b9050919050565b600060208201905081810360008301526122f681611fd4565b9050919050565b6000602082019050818103600083015261231681611ff7565b9050919050565b600060208201905081810360008301526123368161201a565b9050919050565b6000602082019050612352600083018461203d565b92915050565b6000612362612373565b905061236e82826125c5565b919050565b6000604051905090565b600067ffffffffffffffff821115612398576123976126fd565b5b6123a18261272c565b9050602081019050919050565b600067ffffffffffffffff8211156123c9576123c86126fd565b5b6123d28261272c565b9050602081019050919050565b600081519050919050565b600081519050919050565b600082825260208201905092915050565b600082825260208201905092915050565b600081905092915050565b600061242d82612547565b915061243883612547565b9250827fffffffffffffffffffffffffffffffffffffffffffffffffffffffffffffffff0382111561246d5761246c612670565b5b828201905092915050565b600061248382612547565b915061248e83612547565b92508261249e5761249d61269f565b5b828204905092915050565b60006124b482612547565b91506124bf83612547565b9250828210156124d2576124d1612670565b5b828203905092915050565b60006124e882612527565b9050919050565b60008115159050919050565b60007fffffffff0000000000000000000000000000000000000000000000000000000082169050919050565b600073ffffffffffffffffffffffffffffffffffffffff82169050919050565b6000819050919050565b82818337600083830152505050565b60005b8381101561257e578082015181840152602081019050612563565b8381111561258d576000848401525b50505050565b600060028204905060018216806125ab57607f821691505b602082108114156125bf576125be6126ce565b5b50919050565b6125ce8261272c565b810181811067ffffffffffffffff821117156125ed576125ec6126fd565b5b80604052505050565b600061260182612547565b91507fffffffffffffffffffffffffffffffffffffffffffffffffffffffffffffffff82141561263457612633612670565b5b600182019050919050565b600061264a82612547565b915061265583612547565b9250826126655761266461269f565b5b828206905092915050565b7f4e487b7100000000000000000000000000000000000000000000000000000000600052601160045260246000fd5b7f4e487b7100000000000000000000000000000000000000000000000000000000600052601260045260246000fd5b7f4e487b7100000000000000000000000000000000000000000000000000000000600052602260045260246000fd5b7f4e487b7100000000000000000000000000000000000000000000000000000000600052604160045260246000fd5b6000601f19601f8301169050919050565b7f4552433732313a207472616e7366657220746f206e6f6e20455243373231526560008201527f63656976657220696d706c656d656e7465720000000000000000000000000000602082015250565b7f4552433732313a207472616e736665722066726f6d20696e636f72726563742060008201527f6f776e6572000000000000000000000000000000000000000000000000000000602082015250565b7f4552433732313a20746f6b656e20616c7265616479206d696e74656400000000600082015250565b7f4552433732313a207472616e7366657220746f20746865207a65726f2061646460008201527f7265737300000000000000000000000000000000000000000000000000000000602082015250565b7f4552433732313a20617070726f766520746f2063616c6c657200000000000000600082015250565b7f4552433732313a206f70657261746f7220717565727920666f72206e6f6e657860008201527f697374656e7420746f6b656e0000000000000000000000000000000000000000602082015250565b7f4552433732313a20617070726f76652063616c6c6572206973206e6f74206f7760008201527f6e6572206e6f7220617070726f76656420666f7220616c6c0000000000000000602082015250565b7f4552433732313a2062616c616e636520717565727920666f7220746865207a6560008201527f726f206164647265737300000000000000000000000000000000000000000000602082015250565b7f4552433732313a206f776e657220717565727920666f72206e6f6e657869737460008201527f656e7420746f6b656e0000000000000000000000000000000000000000000000602082015250565b7f45524337323155524953746f726167653a2055524920736574206f66206e6f6e60008201527f6578697374656e7420746f6b656e000000000000000000000000000000000000602082015250565b7f4552433732313a206d696e7420746f20746865207a65726f2061646472657373600082015250565b7f45524337323155524953746f726167653a2055524920717565727920666f722060008201527f6e6f6e6578697374656e7420746f6b656e000000000000000000000000000000602082015250565b7f4552433732313a20617070726f76656420717565727920666f72206e6f6e657860008201527f697374656e7420746f6b656e0000000000000000000000000000000000000000602082015250565b7f4552433732314d657461646174613a2055524920717565727920666f72206e6f60008201527f6e6578697374656e7420746f6b656e0000000000000000000000000000000000602082015250565b7f4552433732313a20617070726f76616c20746f2063757272656e74206f776e6560008201527f7200000000000000000000000000000000000000000000000000000000000000602082015250565b7f4552433732313a207472616e736665722063616c6c6572206973206e6f74206f60008201527f776e6572206e6f7220617070726f766564000000000000000000000000000000602082015250565b612bc4816124dd565b8114612bcf57600080fd5b50565b612bdb816124ef565b8114612be657600080fd5b50565b612bf2816124fb565b8114612bfd57600080fd5b50565b612c0981612547565b8114612c1457600080fd5b5056fea264697066735822122056de4b11101e0b6f21b62c21bb1130d8b086be798d7579bd4d2fc0844adc5be464736f6c63430008040033",
  "linkReferences": {},
  "deployedLinkReferences": {}
}